:020000040000FA
:10000000020B85E4FDFCFF1211A5120A9B1212924D
:1000100053D87853E2FDC28043E20290004F74034C
:10002000F02222020CA28E358F368C378D38AB072A
:10003000AA06E4F9F87F407E427D0F12111BE537D6
:10004000F0A3E538F09000A3E535F0A3E536F043E2
:10005000910422E591C320E201D322020D2DE5286F
:1000600075F00DA422F583E493FC740193FD22E462
:10007000F5A922020EF3D2001210F4C290C296D259
:1000800080E4FBFD7F1012124F12054374A4F0D2DE
:10009000AFE4F522F523D2960523E523700205226D
:1000A000B410F3E522B427EEC296300009120FBB5C
:1000B0008E248F258006752401752500E5257004A2
:1000C000E524640170409000A8E07007F522F52354
:1000D00002024A0523E52370020522D39410E5228B
:1000E00094274002D296D3E5239430E522947550AC
:1000F0000302024AE4F522F5239000A8F09000A73D
:10010000F0C29602024AE4F522F5239000A8E0141A
:10011000602A1470030202201470030201E51470B7
:10012000030201FB2404600302024AE52564AA607D
:100130000302024A9000A804F002024AE52590005A
:10014000A7F0A37402F0E525246070030201CD241A
:10015000FB602114603014604014604614604C242D
:10016000F9603F240F70751204FC9000547401F084
:100170007FA180441212099000A87404F0E4F527CE
:1001800075260902024AE4900054F07FA612107707
:1001900090004874A6F002024A12054374A4F002CB
:1001A000024A9000A87403F002024A1204FC900074
:1001B00054E0F521E4F07FA9121077900048EFF0A9
:1001C0007D307C757F017E0012104B807D120552C0
:1001D000900048EFF0E49000A8F0806EE49000A753
:1001E000F0A3F08065E4F527E525F526E526D39410
:1001F000009000A840257404F0804F74032527F573
:1002000082E43400F583E525F00527E527652660BF
:1002100007E527C3944040329000A87402F0802A7A
:10022000E525645570249000A8F0C2009000A7E076
:100230002460601424FC600B24FE60071460042416
:100240000670077FA0121230D2009000A7E0245C55
:10025000604E14605C14700302031624FE700302E7
:10026000033214700302044724F970030204842447
:100270000F60030200AA90004EE030E70F7DC87CBB
:100280000012052C7FA3120F40020461120053409C
:10029000030200AA7DE87C0312052C7FA202047CE5
:1002A00090004EE020E7030200AA7FA4120F4080D6
:1002B000799000A8E060030200AA90004FE024FDBE
:1002C000604C240360030200AA900003E0FEA3E058
:1002D000FF7C007D8012078AE47B807A0FF9F81298
:1002E00006F8900003E0FCA3E0FD900007E0FAA30D
:1002F000E0FB75304B900005E0F531A3E0F5327579
:1003000033197534181205647407F002043A1205A3
:10031000527FA002047C90004EE020E7030200AA76
:10032000547FF529FD7FA6120E9CE490004EF0024A
:1003300000AA9000A8E060030200AA90004FE02409
:10034000FD7003020440240360030200AA12120994
:10035000900003E0647F702FA3E0FEA3E0FFA3E022
:10036000FCA3E0FDA3E0FAA3E0FBA3E0F530A3E0EB
:10037000F531A3E0F532A3E0F533A3E0F53412053F
:1003800064740CF0020431900003E0FF12101E8F21
:1003900028E528F4700302042CEF75F00DA424A1C5
:1003A000F582E43412F583E493FE740193FFC006F2
:1003B000C00712005E24A3F582E43412120065C067
:1003C00004C00512005E24A6F582E43412F583E42D
:1003D00093FA740193FB12005E24AAF582E43412AE
:1003E000F583E493FF12005E24A8F582E434121230
:1003F000006512005E24ABF582E43412F583E493C9
:10040000FE12005E24ACF582E43412F583E493F529
:10041000348E338C318D328F30D005D004D007D05C
:1004200006120DB29000437401F08005E49000A71D
:10043000F09000A7E070030200AA1211C30200AA04
:1004400012055B7FA0803590004EE0FF30E71C5422
:100450007FF5297DC87C0012050FAD297FAB120EF8
:100460009CE490004EF0D2000200AA120053400318
:100470000200AA7DE87C0312050F7FAA121230D277
:10048000000200AA900003E025E0F5299000A8E012
:1004900060030200AA90004FE07005121209800B61
:1004A00090004FE0640360030200AAE5296007E5BD
:1004B00026C39404500DE49000A7F012055BD2000F
:1004C0000200AA74052529F9E43400752D01F52EE2
:1004D000892FC3E526952924FEF530900004E0F528
:1004E000317B017A007905120C14900048E0FF126C
:1004F00010777FA0121230D2000200AA7D327C0059
:100500007F017E0012104BD296121282C296227F79
:10051000017E0012104BD296121282C296900054A5
:10052000E521F0900048E0FF121077227F017E0065
:1005300012104BD296121282C296900048E0FF121F
:100540001077229000547401F07FA412107790006D
:100550004822900048E0FF12107722900048E0FF08
:1005600012107722120DB290004322BB010CE582DB
:1005700029F582E5833AF583E0225006E92582F8E1
:10058000E622BBFE06E92582F8E222E58229F58211
:10059000E5833AF583E49322EF8DF0A4A8F0CF8CA5
:1005A000F0A428CE8DF0A42EFE22BC000BBE0029A4
:1005B000EF8DF084FFADF022E4CCF875F008EF2F5A
:1005C000FFEE33FEEC33FCEE9DEC984005FCEE9D17
:1005D000FE0FD5F0E9E4CEFD22EDF8F5F0EE842033
:1005E000D21CFEADF075F008EF2FFFED33FD400794
:1005F000985006D5F0F222C398FD0FD5F0EA22C23A
:10060000D5EC30E709B2D5E4C39DFDE49CFCEE30A7
:10061000E715B2D5E4C39FFFE49EFE1205AAC3E42A
:100620009DFDE49CFC80031205AA30D507C3E49F1E
:10063000FFE49EFE22BB0110E58229F582E5833AA4
:10064000F583E0F5F0A3E0225009E92582F886F071
:1006500008E622BBFE0AE92582F8E2F5F008E2226C
:10066000E5832AF583E993F5F0A3E99322E88FF077
:10067000A4CC8BF0A42CFCE98EF0A42CFC8AF0ED29
:10068000A42CFCEA8EF0A4CDA8F08BF0A42DCC38DD
:1006900025F0FDE98FF0A42CCD35F0FCEB8EF0A415
:1006A000FEA9F0EB8FF0A4CFC5F02ECD39FEE43CCF
:1006B000FCEAA42DCE35F0FDE43CFC2275F0087573
:1006C0008200EF2FFFEE33FECD33CDCC33CCC5828D
:1006D00033C5829BED9AEC99E58298400CF582EE49
:1006E0009BFEED9AFDEC99FC0FD5F0D6E4CEFBE431
:1006F000CDFAE4CCF9A88222B800C1B90059BA00F9
:100700002DEC8BF084CFCECDFCE5F0CBF97818EF53
:100710002FFFEE33FEED33FDEC33FCEB33FB10D754
:1007200003994004EB99FB0FD8E5E4F9FA22781815
:10073000EF2FFFEE33FEED33FDEC33FCC933C91070
:10074000D7059BE99A4007EC9BFCE99AF90FD8E0A2
:10075000E4C9FAE4CCFB2275F010EF2FFFEE33FE74
:10076000ED33FDCC33CCC833C810D7079BEC9AE8E7
:1007700099400AED9BFDEC9AFCE899F80FD5F0DA68
:10078000E4CDFBE4CCFAE4C8F922EC8EF0A4CCC5AD
:10079000F0CCCDF8EFA4CEC5F02DFDE43CFCE8A4F0
:1007A0002EC8C5F03DFDE43CFCEFA4FFE5F028FEBB
:1007B000E43DFDE43CFC22EF4E6012EF60010EEDE3
:1007C000BB010B89828A83F0A3DFFCDEFA2289F069
:1007D0005007F709DFFCA9F022BBFEFCF309DFFCA0
:1007E000A9F022AFE9AEEA7C007D0A1205988E08D6
:1007F0008F0920930302098385080A85090BC3E545
:1008000009950DF511E508950CF51090004FE014D1
:10081000606104600302099690004EE060030209E3
:1008200096900054E0FFAB11AA10AD0FAC0E120A67
:10083000A28F12E5126480700302099690004A129A
:100840000A6D900001E510F0A3E511120A88E4900A
:100850000043F0900045F0900049F0F513F514FEC8
:100860007F40FD7B017A0079031207B790004F7437
:1008700001F022E51275F00DA424E6F582E43412AD
:10088000F583E493FFD39400400B900049E09F5020
:1008900004E004F022900052E014F0900045E004DF
:1008A000F0AE10AF11AB07AA06E50F2BFFE50E3A2D
:1008B000FEE433FDE433FCC004A905AA06AB07AE91
:1008C0000EAF0F120A75D0001206F8E51275F00D82
:1008D000A424EBF582E43412F583E493FE24F8FDBE
:1008E000EFD39D401AEE2408FDE433FCC3EF9DECEA
:1008F0006480F874809850071209E1C39F4011D3B7
:10090000E50F9514E50E951340441209E16F703E12
:10091000900050120A6DD290900045E024FFFFE451
:1009200034FFFE7C007D081205FF74032FF58274EE
:10093000003EF583C083C082120A227401A8060813
:100940008002C333D8FC4FD082D083F08017900050
:1009500046120A6DC290D39514E50E951340068594
:100960000E13850F14900052E070037408F0120902
:10097000E1B5072290004EE512F04480F0C290E409
:10098000A3F02285080C85090DC3E509950BF50F29
:10099000E508950AF50E22E975F00DA424E4F58228
:1009A000E43412F583E493FE740193FF221206F8F7
:1009B000AB07AA06E4F9F87F407E427D0FFC1206E1
:1009C000F8E47BFFFAF9F812066DA804A905AA0657
:1009D000AB077F207ED77D757C011206F8EFF4040B
:1009E00022E51275F00DA424EDF582E43412F583AE
:1009F000E493FF900045E022E975F00DA424E2F5B0
:100A000082E4341222EF24E8FFEE3403FEC3E53F14
:100A10009FE53E9E22900043E02403F582E43400EB
:100A2000F583E0FF900052E0FE222438FDEE34FF13
:100A3000FCD3E53F9DE53E9C22D3FEE53D9FE53C92
:100A40009E22AB2DAA2EA92F853282758300020526
:100A50006B75F0FFA4FFAEF07C007D640205AA5325
:100A6000E2FDD2807D077C007F017E0022E50EF052
:100A7000A3E50FF0227C007D6402078A540F75F015
:100A800002A4F58285F08322F09000527408F022CF
:100A9000C2807D647C007F0A7E002253DAFE53F719
:100AA000BF228F3B8C3C8D3D8A3E8B3F754080E55D
:100AB0003B7068E4F91209F81209A3D39400EE948C
:100AC000004039EF2438FFEE34FF120A3940441257
:100AD00009F8F58374019324C8FFE4933400C3122A
:100AE0000A3A502F120997120A2A4027EF24C8FF0A
:100AF000E43E120A0C501C8940020B821209971224
:100B00000A2A400FEF24C8FFE43E120A0C50048961
:100B100040806F09E96405709C8067AF3B12101E2E
:100B2000A907E9F4605C1209F81209A3D39400EE56
:100B300094004039EF2418FFEE34FC120A39404289
:100B40001209F8F58374019324E8FFE4933403FE5B
:100B5000C3120A3B502C1209972418FDEE34FC12E4
:100B60000A30401E120A0550198940801512099753
:100B70002418FDEE34FC120A304007120A05500218
:100B80008940AF4022120022787FE4F6D8FD7581BB
:100B900040020BCF020076E493A3F8E493A3400352
:100BA000F68001F208DFF48029E493A3F8540724C7
:100BB0000CC8C333C4540F4420C8834004F4568087
:100BC0000146F6DFE4800B0102040810204080900B
:100BD0000E29E47E019360BCA3FF543F30E5095425
:100BE0001FFEE493A360010ECF54C025E060A8402F
:100BF000B8E493A3FAE493A3F8E493A3C8C582C826
:100C0000CAC583CAF0A3C8C582C8CAC583CADFE9FA
:100C1000DEE780BE8B2A8A2B892C53DBFE120A9BCF
:100C2000120A5F12104B121282120A901200261240
:100C30001282AF311531EF6063E4F532E532C395CE
:100C4000305055AB2AAA2BA92CC003C002C00112F8
:100C50000A42C4120A7CD001D002D003120635F534
:100C60003485F033D280FFAE331210A3AB2AAA2B07
:100C7000A92CC003C002C001120A42120A7CD00192
:100C8000D002D003120635F53485F033C280FFAEB2
:100C9000331210A3053280A4B290809643E202C2C0
:100CA0009022C0E0C0F0C083C082C0D075D000C028
:100CB00000C001C002C003C004C005C006C007E5F3
:100CC000985403F539F45298E53930E01712129B25
:100CD0009000A01210D8EFF09000A0E004F0E0B473
:100CE0002402E4F0E53930E1299000A2E0D3940039
:100CF000401790009F1210E3E0FF12129890009F9F
:100D0000E004F09000A2E014F090009FE0B4240210
:100D1000E4F0D007D006D005D004D003D002D00133
:100D2000D000D0D0D082D083D0F0D0E032C0E0C0AC
:100D3000F0C083C082C0D075D000C000C001C00226
:100D4000C003C004C005C006C007E5D85487F53A03
:100D5000F452D8E5F730E508E5F730E603121187DD
:100D600053F7DFE53A30E708E5D930E00312129E89
:100D7000E53A30E008E5DA30E003120FF1E53A3009
:100D8000E108E5DB30E0031207E3E53A30E208E58D
:100D9000DC30E00312129FD007D006D005D004D07B
:100DA00003D002D001D000D0D0D082D083D0F0D0F8
:100DB000E0328E2A8F2B8C2C8D2DAE02AF03120ABF
:100DC00075C007AF30AB07E4FAF9F8D0071209ADE8
:100DD000900000F0AE31AF32120A75C007AF33ABEE
:100DE00007E4FAF9F8D0071209AD90004DF0E530AC
:100DF000120A51900044EFF0E533120A519000536B
:100E0000EFF090004AE52AF0A3E52BF0900001E511
:100E10002CF0A3E52DF090004CE534F043DA0143CB
:100E2000F74053DBFE75F9FF224200A500004200A7
:100E3000A300004100A8004100A70041004E00416E
:100E4000004F004100540041004800410044564119
:100E50000053AB4100000041004D0042004A000039
:100E600042000100004200500000420046000041E4
:100E7000004C004100520041004500410049004142
:100E80000043004100A0004100A10041009E00413C
:100E9000009F004100A20041009D0000AE07E4FC5D
:100EA000FB121142ED75F00DA4242EF582E43413EB
:100EB000F583E493FFECC39F500774082CFC0B8070
:100EC000E3EB04FF121149ED75F00DA42422F58225
:100ED000E43413F583E493FF121149E4FCECC39B63
:100EE000500974032C1210CC0C80F27F551211495A
:100EF000021295C0E0C083C082C0D075D000C0048B
:100F0000C005C006C00753917F9000A5E0FEA3E096
:100F1000FFD39400EE940050035391FB9000A3E0A4
:100F2000FCA3E0FDC3EF9DFFEE9CA3F0A3EFF0D088
:100F300007D006D005D004D0D0D082D083D0E03204
:100F4000AE07E4FDF52A121142900001E0FF1211F4
:100F5000499000011210EE900046E0FF12114990F6
:100F600000461210EE900050E0FF12114990005020
:100F70001210EE74032D1210CC0DBD03F67F551226
:100F80001149021295120A5F12104B121282120AB4
:100F900090120026121282D28090004A120FABC229
:100FA00080900001120FAB43E20222E0FCA3E0FDBF
:100FB0007F057E00120026121282229000A0E0FF20
:100FC00090009EE0B507057E017F002290009E12F2
:100FD00010D8E0FD7C0090009EE004F0E0B4240214
:100FE000E4F090009DE0FEEE4204E4F0AE04AF05B4
:100FF00022900052E07008900043E004120A8890AA
:10100000004CE0FF900045E0B507030200039000AC
:1010100045E004F0900052E014F0121165227EFFCA
:10102000EFD394004022EF9480501DE4FDED75F065
:101030000DA424E1F582E43412F583E493B50704AA
:10104000AE0580040DBD05E5AF06228E358F368CCA
:10105000378D38AB07AA06E4F9F87FE87E03FD1266
:10106000111BE537F0A3E538F09000A3E535F0A3B8
:10107000E536F0439104228F2A900048E0F52B7F5B
:101080000B12128C43DB01120A9B12128FE49000A8
:101090004FF090004EF09000A7E52AF0900048F045
:1010A000AF2B22C3EF9414EE9400401F74EC2FFF7B
:1010B00074FF3EFEEF25E0FFEE33FED3EF9400EE2B
:1010C00094004007EF1F70F31E80F022F582E43495
:1010D00000F583E0FF021149E02455F582E4340075
:1010E000F58322E02479F582E43400F58322A3E03D
:1010F000FF02114912125812125F12126612123BAD
:1011000012006F1211DD1211F31212451212241285
:10111000126D12127412128802127BFC1206F8A8C9
:1011200004A905AA06AB077F207ED77D757C011236
:1011300006F8C3E49FFFE49EFE1212189000A52259
:10114000AE077FAA121149AF069000A1E0B42402B5
:10115000E4F09000A11210E3EFF09000A1E004F0A1
:10116000A3E004F022120A15EFA806088002C313B8
:10117000D8FC30E0059000448003900053E07D00EF
:10118000FCE4FF1211A522120A15EFA8060880023E
:10119000C313D8FC30E005900000800390004DE0C0
:1011A000FF12128C22AB07AF04EB14600C14600E1C
:1011B0002402700E8DFB8FFC228DE98FEA228DEBCD
:1011C0008FEC22120A89E014F09000457401F0902F
:1011D000004F04F0121165120F8502128FAF885371
:1011E00088AF758CA0758DCBEF5440FEEF54104E38
:1011F000428822E59154045391FB7595FF7594FF45
:101200007593FF75928642912212129253D87853A9
:10121000DBFEE490004FF022AD07AC06ECF593AF97
:10122000058F9222C2DE75D90575F9FF75960122E8
:101230001211407F5512114902129575E34075E174
:101240000175E20222758E4475892243885022532B
:10125000984FEB4F4DF598227597DE7597AD227537
:10126000A41175D4CE2275A54175D5772253F77F89
:1012700075DA4A2253F77F75DB302275E69075A840
:101280009022E59120E2FB22439810228F8C22D2FB
:10129000DE22C2DE22D299228F9922AF9922222207
:1012A000010000271000043801684B19180212C011
:1012B00005DC0002BC012C461E28030BB8232800C5
:1012C000044C01904B191804251C0BB80003840131
:1012D00040461E1805000072D80702BC012C2640AB
:1012E00040010000271000043801684B1918021251
:1012F000C005DC0002BC012C461E28030BB82328C5
:1013000000044C01904B191804251C0BB8000384F1
:101310000140461E1805000072D80702BC012C26A9
:101320004040010000271000043801684B191802E2
:1013300012C005DC0002BC012C461E28030BB8239A
:101340002800044C01904B191804251C0BB800030D
:10135000840140461E1805000072D80702BC012C0B
:03136000264040E4
:00000001FF
